:020000040800F2
:10000000000004207D650008555900085D5900086E
:10001000655900086D590008755900080000000076
:100020000000000000000000000000007D590008F2
:100030008B5900080000000099590008A7590008D2
:10004000CD650008CD650008CD650008CD650008C8
:10005000CD650008CD650008CD650008CD650008B8
:10006000CD650008CD650008CD650008CD650008A8
:10007000CD650008CD650008B5590008C9590008CC
:10008000CD650008CD650008CD650008CD65000888
:10009000CD650008CD650008CD650008CD65000878
:1000A000CD650008CD650008CD650008CD65000868
:1000B000CD650008CD650008CD650008CD65000858
:1000C000CD650008CD650008CD650008CD65000848
:1000D000CD650008E5590008CD650008CD6500082C
:1000E000CD650008CD650008CD650008CD65000828
:1000F000CD650008CD650008CD650008CD65000818
:10010000CD650008CD650008CD650008CD65000807
:10011000CD650008CD650008CD650008CD650008F7
:10012000CD650008CD650008CD650008CD650008E7
:10013000CD650008CD650008CD650008CD650008D7
:10014000CD650008CD650008CD650008CD650008C7
:10015000CD650008CD650008CD650008CD650008B7
:10016000CD650008CD650008CD650008CD650008A7
:10017000CD650008CD650008CD65000800000000D1
:10018000CD650008CD650008CD650008CD65000887
:10019000CD650008CD650008CD650008CD65000877
:1001A000CD650008CD6500080000000000000000DB
:1001B00081F0004102E000BF83F0004330B54FEA18
:1001C00041044FEA430594EA050F08BF90EA020F85
:1001D0001FBF54EA000C55EA020C7FEA645C7FEA18
:1001E000655C00F0E2804FEA5454D4EB5555B8BF3B
:1001F0006D420CDD2C4480EA020281EA030382EAAC
:10020000000083EA010180EA020281EA0303362D3D
:1002100088BF30BD11F0004F4FEA01314FF4801C10
:100220004CEA113102D0404261EB410113F0004F22
:100230004FEA03334CEA133302D0524263EB4303D9
:1002400094EA050F00F0A780A4F10104D5F1200E77
:100250000DDB02FA0EFC22FA05F2801841F10001D2
:1002600003FA0EF2801843FA05F359410EE0A5F1A6
:1002700020050EF1200E012A03FA0EFC28BF4CF0D7
:10028000020C43FA05F3C01851EBE37101F000458D
:1002900007D54FF0000EDCF1000C7EEB00006EEB9A
:1002A0000101B1F5801F1BD3B1F5001F0CD3490824
:1002B0005FEA30004FEA3C0C04F101044FEA44527B
:1002C00012F5800F80F09A80BCF1004F08BF5FEA02
:1002D000500C50F1000041EB045141EA050130BDE2
:1002E0005FEA4C0C404141EB0101013C28BFB1F5F4
:1002F000801FE9D291F0000F04BF01460020B1FA3F
:1003000081F308BF2033A3F10B03B3F120020CDA11
:100310000C3208DD02F1140CC2F10C0201FA0CF0EF
:1003200021FA02F10CE002F11402D8BFC2F1200C54
:1003300001FA02F120FA0CFCDCBF41EA0C0190400A
:10034000E41AA2BF01EB0451294330BD6FEA040453
:100350001F3C1CDA0C340EDC04F11404C4F120023E
:1003600020FA04F001FA02F340EA030021FA04F350
:1003700045EA030130BDC4F10C04C4F1200220FAA7
:1003800002F001FA04F340EA0300294630BD21FAE5
:1003900004F0294630BD94F0000F83F4801306BFAB
:1003A00081F480110134013D4EE77FEA645C18BF9F
:1003B0007FEA655C29D094EA050F08BF90EA020F36
:1003C00005D054EA000C04BF1946104630BD91EA2E
:1003D000030F1EBF0021002030BD5FEA545C05D131
:1003E0004000494128BF41F0004130BD14F5800470
:1003F0003CBF01F5801130BD01F0004545F0FE41E4
:1004000041F470014FF0000030BD7FEA645C1ABF18
:10041000194610467FEA655C1CBF0B46024650EA4F
:10042000013406BF52EA033591EA030F41F400217B
:1004300030BD00BF90F0000F04BF0021704730B501
:100440004FF4806404F132044FF000054FF00001D6
:1004500050E700BF90F0000F04BF0021704730B597
:100460004FF4806404F1320410F0004548BF40426C
:100470004FF000013EE700BF42004FEAE2014FEAC1
:1004800031014FEA02701FBF12F07F4393F07F4F9C
:1004900081F06051704732F07F4208BF704793F09F
:1004A0007F4F04BF41F40021704730B54FF46074B2
:1004B00001F0004521F000411CE700BF50EA0102B5
:1004C00008BF704730B54FF000050AE050EA01025E
:1004D00008BF704730B511F0004502D5404261EBCE
:1004E00041014FF4806404F132045FEA915C3FF40F
:1004F000D8AE4FF003025FEADC0C18BF03325FEAAC
:10050000DC0C18BF033202EBDC02C2F1200300FA5C
:1005100003FC20FA02F001FA03FE40EA0E0021FA81
:1005200002F11444BDE600BF70B54FF0FF0C4CF46F
:10053000E06C1CEA11541DBF1CEA135594EA0C0F21
:1005400095EA0C0F00F0DEF82C4481EA030621EA5C
:100550004C5123EA4C5350EA013518BF52EA033597
:1005600041F4801143F4801338D0A0FB02CE4FF049
:100570000005E1FB02E506F00042E0FB03E54FF079
:100580000006E1FB03569CF0000F18BF4EF0010E71
:10059000A4F1FF04B6F5007F64F5407404D25FEA6D
:1005A0004E0E6D4146EB060642EAC62141EA555120
:1005B0004FEAC52040EA5E504FEACE2EB4F1FD0C62
:1005C00088BFBCF5E06F1ED8BEF1004F08BF5FEAE0
:1005D000500E50F1000041EB045170BD06F0004692
:1005E00046EA010140EA020081EA0301B4EB5C043F
:1005F000C2BFD4EB0C0541EA045170BD41F4801137
:100600004FF0000E013C00F3AB8014F1360FDEBF5B
:10061000002001F0004170BDC4F10004203C35DA37
:100620000C341BDC04F11404C4F1200500FA05F3BA
:1006300020FA04F001FA05F240EA020001F000425B
:1006400021F0004110EBD37021FA04F642EB0601D1
:100650005EEA430E08BF20EAD37070BDC4F10C04FB
:10066000C4F1200500FA04F320FA05F001FA04F2BF
:1006700040EA020001F0004110EBD37041F10001AB
:100680005EEA430E08BF20EAD37070BDC4F12005B6
:1006900000FA05F24EEA020E20FA04F301FA05F21E
:1006A00043EA020321FA04F001F0004121FA04F2C6
:1006B00020EA020000EBD3705EEA430E08BF20EA96
:1006C000D37070BD94F0000F0FD101F000464000D0
:1006D00041EB010111F4801F08BF013CF7D041EA52
:1006E000060195F0000F18BF704703F00046520056
:1006F00043EB030313F4801F08BF013DF7D043EA27
:100700000603704794EA0C0F0CEA135518BF95EADC
:100710000C0F0CD050EA410618BF52EA4306D1D163
:1007200081EA030101F000414FF0000070BD50EA82
:10073000410606BF1046194652EA430619D094EA0C
:100740000C0F02D150EA013613D195EA0C0F05D1F6
:1007500052EA03361CBF104619460AD181EA03014A
:1007600001F0004141F0FE4141F470014FF0000002
:1007700070BD41F0FE4141F4780170BD70B54FF09D
:10078000FF0C4CF4E06C1CEA11541DBF1CEA13551D
:1007900094EA0C0F95EA0C0F00F0A7F8A4EB0504FF
:1007A00081EA030E52EA03354FEA013100F08880F6
:1007B0004FEA03334FF0805545EA131343EA1263BF
:1007C0004FEA022245EA111545EA10654FEA002674
:1007D0000EF000419D4208BF964244F1FD0404F52D
:1007E000407402D25B084FEA3202B61A65EB030589
:1007F0005B084FEA32024FF480104FF4002CB6EB46
:10080000020E75EB030E22BFB61A754640EA0C00C5
:100810005B084FEA3202B6EB020E75EB030E22BF05
:10082000B61A754640EA5C005B084FEA3202B6EB46
:10083000020E75EB030E22BFB61A754640EA9C0005
:100840005B084FEA3202B6EB020E75EB030E22BFD5
:10085000B61A754640EADC0055EA060E18D04FEA93
:10086000051545EA16754FEA06164FEAC30343EA33
:1008700052734FEAC2025FEA1C1CC0D111F4801F00
:100880000BD141EA00014FF000004FF0004CB6E7F9
:1008900011F4801F04BF01430020B4F1FD0C88BF98
:1008A000BCF5E06F3FF6AFAEB5EB030C04BFB6EBA3
:1008B000020C5FEA500C50F1000041EB045170BD96
:1008C0000EF0004E4EEA113114EB5C04C2BFD4EBC3
:1008D0000C0541EA045170BD41F480114FF0000E47
:1008E000013C90E645EA060E8DE60CEA135594EAC3
:1008F0000C0F08BF95EA0C0F3FF43BAF94EA0C0FC6
:100900000AD150EA01347FF434AF95EA0C0F7FF43A
:1009100025AF104619462CE795EA0C0F06D152EA8E
:1009200003353FF4FDAE1046194622E750EA410672
:1009300018BF52EA43067FF4C5AE50EA41047FF483
:100940000DAF52EA43057FF4EBAE12E74FF0FF3CE8
:1009500006E000BF4FF0010C02E000BF4FF0010CB9
:100960004DF804CD4FEA410C7FEA6C5C4FEA430C32
:1009700018BF7FEA6C5C1BD001B050EA410C0CBF81
:1009800052EA430C91EA030F02BF90EA020F0020E3
:10099000704710F1000F91EA030F58BF994208BF4A
:1009A00090422CBFD8176FEAE37040F00100704707
:1009B0004FEA410C7FEA6C5C02D150EA013C07D15E
:1009C0004FEA430C7FEA6C5CD6D152EA033CD3D0A9
:1009D0005DF8040B704700BF8446104662468C46A3
:1009E0001946634600E000BF01B5FFF7B7FF0028D6
:1009F00048BF10F1000F01BD4DF808EDFFF7F4FFFF
:100A00000CBF012000205DF808FB00BF4DF808ED89
:100A1000FFF7EAFF34BF012000205DF808FB00BFAC
:100A20004DF808EDFFF7E0FF94BF012000205DF8CE
:100A300008FB00BF4DF808EDFFF7CEFF94BF012083
:100A400000205DF808FB00BF4DF808EDFFF7C4FF7C
:100A500034BF012000205DF808FB00BF4FEA410CC5
:100A60007FEA6C5C02D150EA013C0AD14FEA430CA8
:100A70007FEA6C5C02D152EA033C02D14FF00000E5
:100A800070474FF0010070474FEA410212F5001223
:100A900015D211D56FF47873B3EB625212D94FEAC5
:100AA000C12343F0004343EA505311F0004F23FAAF
:100AB00002F018BF404270474FF00000704750EA04
:100AC000013005D111F0004008BF6FF000407047C1
:100AD0004FF00000704700BF4FEA4102B2F1E0431F
:100AE00024BFB3F5001CDCF1FE5C0DD901F0004C15
:100AF0004FEAC0024CEA5070B2F1004F40EB830065
:100B000008BF20F00100704711F0804F21D113F190
:100B10003872BCBF01F00040704741F480114FEAC9
:100B20005252C2F11802C2F1200C10FA0CF320FA52
:100B300002F018BF40F001004FEAC1234FEAD3236F
:100B400003FA0CFC40EA0C0023FA02F34FEA4303D9
:100B5000CCE77FEA625307D150EA01331EBF4FF062
:100B6000FE4040F44000704701F0004040F0FE407D
:100B700040F40000704700BF80F0004002E000BF7A
:100B800081F0004142001FBF5FEA410392EA030F78
:100B90007FEA226C7FEA236C6AD04FEA1262D2EBC2
:100BA0001363C1BFD218414048404140B8BF5B42C7
:100BB000192B88BF704710F0004F40F4000020F060
:100BC0007F4018BF404211F0004F41F4000121F076
:100BD0007F4118BF494292EA030F3FD0A2F10102C0
:100BE00041FA03FC10EB0C00C3F1200301FA03F1FE
:100BF00000F0004302D5494260EB4000B0F5000F21
:100C000013D3B0F1807F06D340084FEA310102F1DF
:100C10000102FE2A51D2B1F1004F40EBC25008BF91
:100C200020F0010040EA03007047490040EB00005B
:100C3000013A28BFB0F5000FEDD2B0FA80FCACF15C
:100C4000080CB2EB0C0200FA0CF0AABF00EBC25089
:100C500052421843BCBFD0401843704792F0000F77
:100C600081F4000106BF80F400000132013BB5E7CA
:100C70004FEA41037FEA226C18BF7FEA236C21D040
:100C800092EA030F04D092F0000F08BF08467047A5
:100C900090EA010F1CBF0020704712F07F4F04D173
:100CA000400028BF40F00040704712F100723CBF86
:100CB00000F50000704700F0004343F0FE4040F4B0
:100CC000000070477FEA226216BF08467FEA23636E
:100CD0000146420206BF5FEA412390EA010F40F459
:100CE000800070474FF0000304E000BF10F00043A5
:100CF00048BF40425FEA000C08BF704743F096438C
:100D000001464FF000001CE050EA010208BF7047A6
:100D10004FF000030AE000BF50EA010208BF70472D
:100D200011F0004302D5404261EB41015FEA010C42
:100D300002BF84460146002043F0B64308BFA3F13A
:100D40008053A3F50003BCFA8CF2083AA3EBC2531C
:100D500010DB01FA02FC634400FA02FCC2F120023B
:100D6000BCF1004F20FA02F243EB020008BF20F072
:100D70000100704702F1200201FA02FCC2F12002D8
:100D800050EA4C0021FA02F243EB020008BF20EACD
:100D9000DC70704753B94AB9002908BF00281CBF4E
:100DA0004FF0FF314FF0FF3000F00CB8ADF1080C00
:100DB0006DE904CE0AF0C0F9DDF804E0DDE90223B4
:100DC00004B07047704700BF000000000000000042
:100DD00001F0FF01102A2BDB10F0070F08D010F8EC
:100DE000013B013A8B422DD010F0070F42B3F6D1F0
:100DF000F0B441EA012141EA014122F007047FF009
:100E000000070023F0E80256083C85EA010586EA5F
:100E1000010685FA47F5A3FA87F586FA47F6A5FA9B
:100E200087F68EB9EED1F0BC01F0FF0102F00702A7
:100E300032B110F8013B013A83EA010313B1F8D152
:100E40000020704701387047002D06BF3546033833
:100E5000073815F0010F07D1013015F4807F02BF6C
:100E6000013015F4C03F0130F0BC0138704700BFBD
:100E7000034613F8012B002AFBD1181A01387047DA
:100E80000348044B834202D0034B03B11847704719
:100E90001809002018090020000000000548064B32
:100EA0001B1AD90F01EBA301491002D0034B03B168
:100EB000184770471809002018090020000000009A
:100EC00010B5064C237843B9FFF7DAFF044B13B192
:100ED0000448AFF300800123237010BD20090020D7
:100EE0000000000044DE000808B5054B1BB10549B1
:100EF0000548AFF30080BDE80840FFF7CFBF00BF53
:100F0000000000002409002044DE000880B400AF87
:100F1000064BD3F88830054A43F47003C2F8883092
:100F200000BFBD465DF8047B704700BF00ED00E0E8
:100F3000B0B59EB000AFF860B9607A6001237B67FE
:100F4000FAE04FF000024FF00003C7E91A234FF018
:100F500000024FF00003C7E918234FF000027E4B58
:100F6000C7E916234FF000024FF00003C7E914232E
:100F7000786FFFF76FFA76A3D3E90023FFF7D4FA6F
:100F800002460B4614461D46B868FFF763FA024650
:100F90000B4620462946FFF7F1FB02460B46C7E900
:100FA000102397ED100B08F06BFA87ED0E0B97ED01
:100FB000100B08F0A9FA87ED0C0B0023FB6466E028
:100FC000FB6C9B00FA6813441B681846FFF754FA41
:100FD00002460B46C7E90A23D7E91623D7E90A01D7
:100FE000FFF7A2FA02460B46D7E91A01FFF7E6F827
:100FF00002460B46C7E91A23D7E91423D7E90A01A9
:10100000FFF792FA02460B46D7E91801FFF7D6F828
:1010100002460B46C7E91823D7E90E23D7E9160184
:10102000FFF782FA02460B4614461D46D7E90C2309
:10103000D7E91401FFF778FA02460B462046294605
:10104000FFF7BAF802460B46C7E90823D7E90C2395
:10105000D7E91601FFF768FA02460B4614461D460B
:10106000D7E90E23D7E91401FFF75EFA02460B46D3
:1010700020462946FFF7A2F802460B46C7E914238B
:10108000D7E90823C7E91623FB6C0133FB64FA6C2C
:10109000BB689A4294DBD7E91A23D7E91A01FFF714
:1010A00043FA02460B4614461D46D7E91823D7E9F2
:1010B0001801FFF739FA02460B4620462946FFF78A
:1010C0007DF802460B4610461946FFF705FD03461C
:1010D000FB6107F11403BB61D7ED077AF5EEC07A27
:1010E000F1EE10FA09DB97ED070A08F091FAF0EE3D
:1010F000407ABB69C3ED007A04E0BB694FF000029F
:101100001A6000BF7B691846FFF7B6F902460B4626
:1011100043EC102B08F0A0FA51EC100B7B6F03F19D
:101120008043013B9B007A68D418FFF7D5FC034647
:1011300023607B6F01337B677B6F402B7FF701AFB1
:1011400000BF00BF7837BD46B0BD00BFAFF3008021
:10115000182D4454FB2119C00000F03F80B598B011
:1011600000AFF860B9607A60BB68002B00DA033327
:101170009B10FB630023FB6543E1FB6DFA6B02FBF5
:1011800003F3BB63BA6BFB6B13447B63FA6D1346CB
:10119000DB00134440333B634FF00003BB654FF06B
:1011A00000037B659B4B3B659B4BFB640023BB644F
:1011B00000237B64BB6B3B6464E03B6C9B00FA6880
:1011C00013441B687B6197ED167AD7ED057A77EEAD
:1011D000277AC7ED167AD7ED057A67EEA77A97EDED
:1011E000157A77EE277AC7ED157A97ED057AD7ED60
:1011F000147AB4EEE77AF1EE10FA01D57B693B651B
:1012000097ED057AD7ED137AB4EEE77AF1EE10FA9E
:1012100001DD7B69FB64D7ED057AF5EE407AF1EEEE
:1012200010FA02D0BB6C0133BB643A6CBB6B9A42C0
:1012300025DD3B6C03F18043013B9B00FA681344BE
:10124000D3ED007AF5EEC07AF1EE10FAACBF0123CF
:101250000023DAB23B6C9B00F9680B44D3ED007AB3
:10126000F5EEC07AF1EE10FAACBF01230023DBB239
:101270005340DBB2002B02D07B6C01337B643B6CB0
:1012800001333B643A6C7B6B9A4296DB7A6BBB6BA7
:10129000D31AFB62FB6A07EE903AB8EEE77AD7ED15
:1012A000166AC6EE877AC7ED0A7AFB6A07EE903AAD
:1012B000F8EEE77AD7ED156A86EEA77AD7ED0A7AC7
:1012C00067EEA77A77EE677AC7ED097AD7ED097AE4
:1012D000F5EEC07AF1EE10FA02DDD7ED097A01E001
:1012E000DFED4E7AB0EE670A08F092F987ED080A52
:1012F000FB6A07EE903AF8EEE77A97ED157AC7EEBB
:10130000276AB0EE660A08F083F987ED070AD7ED81
:10131000147AB0EEE77AD7ED137AF0EEE77AB4EE0E
:10132000E77AF1EE10FA04DDD7ED147AF0EEE77A01
:1013300003E0D7ED137AF0EEE77AC7ED067A3B6B60
:101340009B007A681344BA6A1A603B6B01339B00B6
:101350007A6813443A6A1A603B6B02339B007A68DE
:1013600013443A6D1A603B6B03339B007A68134455
:10137000FA6C1A603B6B04339B007A681344FA6979
:101380001A603B6B05339B007A681344BA691A6094
:101390007B6C07EE903AF8EEE76AFB6A07EE903A4C
:1013A000B8EEE77A3B6B06339B007A681344C6EECF
:1013B000877AC3ED007AFB6A07EE903AB8EEE77AD7
:1013C0003B6B07339B007A681344D7ED156AC6EE72
:1013D000877AC3ED007ABB6C07EE903AF8EEE76AC5
:1013E000FB6A07EE903AB8EEE77A3B6B08339B0056
:1013F0007A681344C6EE877AC3ED007AFB6D013339
:10140000FB65FB6D032B7FF7B8AE00BF00BF6037F5
:10141000BD4680BDF9021550F90215D0000000004C
:1014200080B584B000AF786039603A6841F270717D
:101430007868FFF77DFD3A6841F270717868FFF7D0
:101440008DFE0023FB602AE0FB689B003A68134492
:101450001B68BB6097ED027AD7ED027AB4EE677A2B
:10146000F1EE10FA11D1D7ED027A9FED117AF4EE78
:10147000C77AF1EE10FA08DCD7ED027A9FED0D7A0B
:10148000F4EEC77AF1EE10FA06D5FB689B003A68D5
:1014900013444FF000021A60FB680133FB60FB68E5
:1014A000632BD1DD00BF00BF1037BD4680BD00BF3C
:1014B000FDFF7F7FFDFF7FFF80B588B000AFF86044
:1014C000B9600023FB614DE0FB699B00FA6813449F
:1014D00093ED007A274AFB699B001344D3ED007A11
:1014E00077EE676A244AFB699B00134493ED007A08
:1014F000C6EE877AC7ED057A97ED057ADFED1F6AAC
:10150000C7EE267A9FED1E7A77EEC77AC7ED067A88
:10151000D7ED067A9FED1B7AF4EEC77AF1EE10FA5A
:1015200001DD194BBB61D7ED067A9FED187AF4EE19
:10153000C77AF1EE10FA02D54FF04343BB6197ED45
:10154000060A08F049FBF0EE407AFB69BA681344DA
:10155000FDEEE77AC7ED017A3A7952B21A70FB696B
:101560000133FB61FB69632BAEDD00BF00BF203799
:10157000BD4680BDF4E2000884E40008C255CE3DBB
:10158000000030420000FE420000FE42000000C3A6
:1015900080B5E6B000AF07F5CC73A3F5CA73186049
:1015A00007F5CC73A3F5CC73196007F1080207F5B2
:1015B000CC73A3F5CA7311461868FFF731FF07F51E
:1015C000CC73A3F5CC7307F1080219681046FFF736
:1015D00073FF00BF07F5CC77BD4680BD2DE9B04F46
:1015E00092B000AF78623962FA61BB6187ED050A9B
:1015F000C7ED040A00237B647CE07B6C9B00BA6926
:1016000013441B68DA17BB60FA60D7E90223C7E905
:101610000E2300237B632FE07B6C3A6A03FB02F20C
:101620007B6B13441A46FB69134493F900305BB299
:10163000DA17984691467B6B7A6A134493F9003027
:101640001A463B6FD31ADA179A4693460AFB09F2F9
:1016500008FB0BF31344A8FB0A452B441D46D7E9AE
:101660000E23111939606B417B60D7E90023C7E96C
:101670000E237B6B01337B637A6B3B6A9A42CBDB35
:10168000D7E90E01FFF748FB07EE100A7B6C9B00C1
:10169000BA6E1344D3ED007A27EE277AD7ED057A98
:1016A00067EE276A97ED047AC6EE877AC7ED0B7A64
:1016B00097ED0B0A08F090FAF0EE407AFDEEE77A2B
:1016C00017EE902A7B6F13443B633B6B7F2B01DD4E
:1016D0007F233B633B6B13F1800F02DA6FF07F03D4
:1016E0003B637B6CBA6F13443A6B52B21A707B6CDB
:1016F00001337B647A6CFB6E9A42FFF67EAF00BFCB
:1017000000BF4837BD46BDE8B08F80B487B000AF9A
:10171000F860B9607A6000237B6111E07B69FA6848
:10172000134493F900301A467B68934205DD7B69C8
:10173000FA6813447A6852B21A707B6901337B618C
:101740007A69BB689A42E9DB00BF00BF1C37BD461F
:101750005DF8047B7047000090B595B000AF7861EC
:101760003961FA6087ED020A7B60594BFB644FF0E8
:101770000003BB6400237B6432E07B6C7A69134412
:1017800093F9003007EE903AB8EEE77AFB6807EE7F
:10179000903AF8EEE77A37EE677AD7ED027A67EE9D
:1017A000277A7B6C9B0050333B44383BC3ED007A77
:1017B0007B6C9B0050333B44383BD3ED007A97ED74
:1017C000137AB4EEE77AF1EE10FA06D57B6C9B0043
:1017D00050333B44383B1B68FB647B6C01337B64B8
:1017E0007A6C3B699A42C8DB00233B6425E03B6C82
:1017F0009B0050333B44383B93ED007AD7ED137A8E
:1018000077EE677A3B6C9B007A68D418B0EE670A73
:1018100007F0C2FEF0EE407AC4ED007A3B6C9B000C
:101820007A681344D3ED007A97ED127A77EE277A2F
:10183000C7ED127A3B6C01333B643A6C3B699A42C8
:10184000D5DBD7ED127AF5EEC07AF1EE10FA19DD9C
:101850000023FB6312E0FB6B9B007A681344D3ED1B
:10186000006AFB6B9B007A68134497ED127AC6EE10
:10187000877AC3ED007AFB6B0133FB63FA6B3B693C
:101880009A42E8DB0023BB637B68043393ED007A64
:101890007B68D3ED007AB4EEE77AF1EE10FA01DD61
:1018A0000123BB637B68083393ED007ABB6B9B001D
:1018B0007A681344D3ED007AB4EEE77AF1EE10FAC9
:1018C00001DD0223BB63BB6B18465437BD4690BD98
:1018D000CAF249F180B596B006AFF860B9607A6097
:1018E00007F12C0304936FF07F0303936FF02B0336
:1018F0000293102301933E4B0093DFED3E0A9FEDD0
:101900003E0A3E4B3E4A6421F868FFF767FE07F146
:101910002C036FF07F0210211846FFF7F6FE07F147
:101920002C0007F1240304936FF07F0303936FF0FF
:101930007F03029308230193324B0093DFED320AB9
:101940009FED2C0A314B324A1021FFF747FE07F179
:1019500024036FF07F0208211846FFF7D6FE07F137
:10196000240007F1200304936FF0220303936FF028
:101970007F03029303230193264B0093DFED260A96
:101980009FED210A254B264A0821FFF727FE07F184
:10199000140307F120009FED200A6FF022020321BB
:1019A000FFF7DAFEF863BB68002B0DD097F9202013
:1019B000BB681A70BB68013397F921201A70BB68A5
:1019C000023397F922201A707B68002B0AD07A69BB
:1019D0007B681A607B680433BA691A607B680833D5
:1019E000FA691A60FB6B18464037BD4680BD00BFE0
:1019F00014E600087DE5AC3DC255CE3D58ED00082B
:101A000080E6000854E60008715C633D98ED00082C
:101A1000C0EC000874E60008117BD73DB8ED000863
:101A200040ED000880B582B000AF0023FB710C4B85
:101A30001B680B4A43F480731360032002F0D6F84E
:101A40000F2000F00FF80346002B02D00123FB719A
:101A500001E003F0D5FFFB7918460837BD4680BD8D
:101A60000020024080B584B000AF78600023FB7393
:101A7000174B1B78002B23D0164B1A68144B1B787E
:101A800019464FF47A73B3FBF1F3B2FBF3F3184644
:101A900002F0E1F80346002B0FD17B680F2B09D829
:101AA000002279684FF0FF3002F0ABF80A4A7B68F9
:101AB000136007E00123FB7304E00123FB7301E0E3
:101AC0000123FB73FB7B18461037BD4680BD00BF6A
:101AD00008000020000000200400002080B400AFB7
:101AE000064B1B781A46064B1B681344044A1360C6
:101AF00000BFBD465DF8047B704700BF08000020B2
:101B00003C09002080B400AF034B1B681846BD465B
:101B10005DF8047B704700BF3C09002080B584B0AD
:101B200000AF7860FFF7EEFFB8607B68FB60FB6892
:101B3000B3F1FF3F05D00A4B1B781A46FB681344EC
:101B4000FB6000BFFFF7DEFF0246BB68D31AFA68EE
:101B50009A42F7D800BF00BF1037BD4680BD00BF16
:101B60000800002080B588B000AF78607B68002B4B
:101B700002D1012300F008BC964B9B6803F00C03D4
:101B8000BB61944BDB6803F003037B617B681B68DC
:101B900003F01003002B00F0E480BB69002B07D09A
:101BA000BB690C2B40F08B807B69012B40F0878058
:101BB000884B1B6803F00203002B05D07B689B69F0
:101BC000002B01D10123DFE37B681A6A814B1B687C
:101BD00003F00803002B04D07E4B1B6803F0F003D6
:101BE00005E07C4BD3F894301B0903F0F0039342DB
:101BF00023D27B681B6A184600F092FD0346002B37
:101C000001D00123C0E3734B1B68724A43F0080301
:101C10001360704B1B6823F0F0027B681B6A6D49F0
:101C200013430B606B4B5B6823F47F427B68DB697B
:101C30001B02684913434B6025E0664B1B68654AED
:101C400043F008031360634B1B6823F0F0027B68CA
:101C50001B6A604913430B605E4B5B6823F47F4251
:101C60007B68DB691B025B4913434B60BB69002B3C
:101C700009D17B681B6A184600F052FD0346002B11
:101C800001D0012380E300F087FC0246514B9B68A2
:101C90001B0903F00F035049CB5C03F01F0322FA2A
:101CA00003F34E4A13604E4B1B681846FFF7DAFEEB
:101CB0000346FB73FB7B002B52D0FB7B64E37B680A
:101CC0009B69002B32D0434B1B68424A43F001030F
:101CD0001360FFF717FF386108E0FFF713FF0246B4
:101CE0003B69D31A022B01D903234DE3394B1B68FF
:101CF00003F00203002BF0D0364B1B68354A43F04B
:101D000008031360334B1B6823F0F0027B681B6AE7
:101D1000304913430B602F4B5B6823F47F427B6891
:101D2000DB691B022B4913434B601AE0294B1B68EC
:101D3000284A23F001031360FFF7E4FE386108E04E
:101D4000FFF7E0FE02463B69D31A022B01D90323B9
:101D50001AE3204B1B6803F00203002BF0D100E0D4
:101D600000BF7B681B6803F00103002B73D0BB69C5
:101D7000082B05D0BB690C2B0ED17B69032B0BD133
:101D8000144B1B6803F40033002B63D07B685B6843
:101D9000002B5FD10123F7E27B685B68B3F5803FDE
:101DA00006D10C4B1B680B4A43F48033136025E0CB
:101DB0007B685B68B3F5A02F14D1064B1B68054AFE
:101DC00043F480231360034B1B68024A43F48033BF
:101DD000136013E000100240ACE200080000002095
:101DE00004000020A04B1B689F4A23F4803313603B
:101DF0009D4B1B689C4A23F4802313607B685B68BF
:101E0000002B13D0FFF77EFE386108E0FFF77AFE63
:101E100002463B69D31A642B01D90323B4E2924BE7
:101E20001B6803F40033002BF0D014E0FFF76AFEC8
:101E3000386108E0FFF766FE02463B69D31A642B5F
:101E400001D90323A0E2884B1B6803F40033002B65
:101E5000F0D100E000BF7B681B6803F00203002B99
:101E600060D0BB69042B05D0BB690C2B19D17B69F1
:101E7000022B16D17C4B1B6803F48063002B05D02A
:101E80007B68DB68002B01D101237DE2764B5B6828
:101E900023F0FE427B681B691B06734913434B60AA
:101EA00040E07B68DB68002B23D06F4B1B686E4AD9
:101EB00043F480731360FFF725FE386108E0FFF7F5
:101EC00021FE02463B69D31A022B01D903235BE2B0
:101ED000654B1B6803F48063002BF0D0624B5B689A
:101EE00023F0FE427B681B691B065F4913434B606E
:101EF00018E05D4B1B685C4A23F480731360FFF7A6
:101F000001FE386108E0FFF7FDFD02463B69D31A88
:101F1000022B01D9032337E2534B1B6803F4806380
:101F2000002BF0D17B681B6803F00803002B3CD02A
:101F30007B685B69002B1CD04B4BD3F894304A4A2A
:101F400043F00103C2F89430FFF7DCFD386108E08C
:101F5000FFF7D8FD02463B69D31A022B01D90323B0
:101F600012E2414BD3F8943003F00203002BEFD080
:101F70001BE03D4BD3F894303B4A23F00103C2F8F9
:101F80009430FFF7BFFD386108E0FFF7BBFD024664
:101F90003B69D31A022B01D90323F5E1324BD3F865
:101FA000943003F00203002BEFD17B681B6803F031
:101FB0000403002B00F0A6800023FB772A4B9B6DC7
:101FC00003F08053002B0DD1274B9B6D264A43F025
:101FD00080539365244B9B6D03F08053BB60BB68BB
:101FE0000123FB77214B1B6803F48073002B18D16E
:101FF0001E4B1B681D4A43F480731360FFF782FD7C
:10200000386108E0FFF77EFD02463B69D31A022BD8
:1020100001D90323B8E1154B1B6803F48073002B2F
:10202000F0D07B689B68012B08D10F4BD3F8903020
:102030000D4A43F00103C2F8903029E07B689B68A9
:10204000052B15D1084BD3F89030074A43F0040311
:10205000C2F89030044BD3F89030034A43F00103A8
:10206000C2F8903014E000BF001002400070004041
:102070009D4BD3F890309C4A23F00103C2F8903076
:10208000994BD3F89030984A23F00403C2F890306B
:102090007B689B68002B16D0FFF734FD38610AE09F
:1020A000FFF730FD02463B69D31A41F28832934272
:1020B00001D9032368E18C4BD3F8903003F002037D
:1020C000002BEDD015E0FFF71DFD38610AE0FFF7AA
:1020D00019FD02463B69D31A41F28832934201D975
:1020E000032351E1804BD3F8903003F00203002B1F
:1020F000EDD1FB7F012B05D17B4B9B6D7A4A23F001
:10210000805393657B681B6803F02003002B3CD051
:102110007B685B6A002B1CD0734BD3F89830724AF3
:1021200043F00103C2F89830FFF7ECFC386108E097
:10213000FFF7E8FC02463B69D31A022B01D90323BF
:1021400022E1694BD3F8983003F00203002BEFD063
:102150001BE0654BD3F89830634A23F00103C2F8C3
:102160009830FFF7CFFC386108E0FFF7CBFC024660
:102170003B69D31A022B01D9032305E15A4BD3F84B
:10218000983003F00203002BEFD17B689B6A002B91
:1021900000F0F9807B689B6A022B40F0CF80524BA5
:1021A000DB687B617B6903F003027B68DB6A9A4230
:1021B0002CD17B6903F070027B681B6B013B1B0118
:1021C0009A4223D17B6903F4FE427B685B6B1B025E
:1021D0009A421BD17B6903F078427B689B6BDB06DC
:1021E0009A4213D17B6903F4C0027B68DB6B5B0806
:1021F000013B5B059A4209D17B6903F0C0627B68B1
:102200001B6C5B08013B5B069A4271D0BB690C2BCF
:1022100068D0354B1B6803F08063002B05D1324B2F
:102220001B6803F08053002B01D00123ACE02E4B40
:102230001B682D4A23F080731360FFF763FC38613D
:1022400008E0FFF75FFC02463B69D31A022B01D975
:10225000032399E0244B1B6803F00073002BF0D19B
:10226000214BDA68214B13407A68D16A7A68126B85
:10227000013A120111437A68526B120211437A68D3
:10228000D26B5208013A520511437A68126C520817
:10229000013A520611437A68926BD2060A431249F8
:1022A0001343CB60104B1B680F4A43F080731360DD
:1022B0000D4BDB680C4A43F08073D360FFF722FCC0
:1022C000386108E0FFF71EFC02463B69D31A022B77
:1022D00001D9032358E0044B1B6803F00073002B63
:1022E000F0D050E001234FE0001002408C809D01AF
:1022F000274B1B6803F00073002B44D1244B1B6851
:10230000234A43F080731360214BDB68204A43F07B
:102310008073D360FFF7F6FB386108E0FFF7F2FB4C
:1023200002463B69D31A022B01D903232CE0184B38
:102330001B6803F00073002BF0D024E0BB690C2B6A
:102340001FD0134B1B68124A23F080731360FFF7F2
:10235000D9FB386108E0FFF7D5FB02463B69D31A89
:10236000022B01D903230FE0094B1B6803F0007314
:10237000002BF0D1064BDA680549064B1340CB60C1
:1023800001E0012300E0002318462037BD4680BD50
:1023900000100240FCFFEEFE80B584B000AF786014
:1023A00039607B68002B01D10123E7E0754B1B6886
:1023B00003F007033A689A4210D9724B1B6823F066
:1023C000070270493B6813430B606E4B1B6803F0B8
:1023D00007033A689A4201D00123CFE07B681B686B
:1023E00003F00203002B10D07B689A68664B9B6851
:1023F00003F0F0039A4208D9634B9B6823F0F00284
:102400007B689B68604913438B607B681B6803F0A3
:102410000103002B4CD07B685B68032B07D15A4B20
:102420001B6803F00073002B21D10123A6E07B6819
:102430005B68022B07D1544B1B6803F40033002B5D
:1024400015D101239AE07B685B68002B07D14E4BC6
:102450001B6803F00203002B09D101238EE04A4BD5
:102460001B6803F48063002B01D1012386E0464BF7
:102470009B6823F003027B685B68434913438B60CE
:10248000FFF740FBF8600AE0FFF73CFB0246FB6801
:10249000D31A41F28832934201D903236EE03A4BBA
:1024A0009B6803F00C027B685B689B009A42EBD14F
:1024B0007B681B6803F00203002B10D07B689A68CE
:1024C000314B9B6803F0F0039A4208D22E4B9B6875
:1024D00023F0F0027B689B682B4913438B60294BE8
:1024E0001B6803F007033A689A4210D2254B1B6819
:1024F00023F0070223493B6813430B60214B1B6801
:1025000003F007033A689A4201D0012336E07B6862
:102510001B6803F00403002B08D01B4B9B6823F4BB
:10252000E0627B68DB68184913438B607B681B683B
:1025300003F00803002B09D0134B9B6823F460526F
:102540007B681B69DB00104913438B6000F024F8A3
:1025500002460D4B9B681B0903F00F030B49CB5C34
:1025600003F01F0322FA03F3094A1360094B1B68A7
:102570001846FFF777FA0346FB72FB7A18461037C6
:10258000BD4680BD0020024000100240ACE20008C1
:10259000000000200400002080B489B000AF0023B8
:1025A000FB610023BB613E4B9B6803F00C033B6166
:1025B0003B4BDB6803F00303FB603B69002B05D05A
:1025C0003B690C2B21D1FB68012B1ED1344B1B68BE
:1025D00003F00803002B07D1314BD3F894301B0ACA
:1025E00003F00F03FB6105E02D4B1B681B0903F093
:1025F0000F03FB612B4AFB6952F82330FB613B69F7
:10260000002B0DD1FB69BB610AE03B69042B02D1B1
:10261000254BBB6104E03B69082B01D1234BBB6117
:102620003B690C2B34D11E4BDB6803F00303BB600A
:10263000BB68022B03D0BB68032B03D005E01A4B09
:102640007B6105E0194B7B6102E0FB697B6100BFA8
:10265000134BDB681B0903F0070301337B60104B4E
:10266000DB681B0A03F07F037A6903FB02F27B68D5
:10267000B2FBF3F37B610A4BDB685B0E03F00303F1
:1026800001335B003B607A693B68B2FBF3F3BB61EB
:10269000BB6918462437BD465DF8047B704700BF10
:1026A00000100240C4E200080024F40000127A0086
:1026B00080B400AF034B1B681846BD465DF8047B31
:1026C000704700BF0000002080B500AFFFF7F0FFAB
:1026D0000246064B9B681B0A03F007030449CB5CC8
:1026E00003F01F0322FA03F3184680BD00100240D6
:1026F000BCE2000880B500AFFFF7DAFF0246064BE8
:102700009B68DB0A03F007030449CB5C03F01F035B
:1027100022FA03F3184680BD00100240BCE2000814
:1027200080B586B000AF786000233B612A4B9B6D7B
:1027300003F08053002B03D001F024F9786114E0FA
:10274000254B9B6D244A43F080539365224B9B6D30
:1027500003F08053FB60FB6801F014F978611E4BB5
:102760009B6D1D4A23F0805393657B69B3F5007F11
:102770000BD17B68802B19D97B68A02B02D902234F
:102780003B6113E001233B6110E07B68802B02D9A1
:1027900003233B610AE07B68802B02D102233B616B
:1027A00004E07B68702B01D101233B610B4B1B685C
:1027B00023F0070209493B6913430B60074B1B6871
:1027C00003F007033A699A4201D0012300E0002395
:1027D00018461837BD4680BD001002400020024058
:1027E00080B586B000AF78600023FB740023BB7413
:1027F0007B681B6803F40063002B41D07B689B6EF1
:10280000B3F5400F2AD0B3F5400F24D8B3F5000F2D
:1028100008D0B3F5000F1ED8002B0AD0B3F5800FF7
:1028200010D018E0864BDB68854A43F48033D360D0
:1028300015E07B6804330021184600F0CDFA03460A
:10284000FB740CE07B6820330021184600F0B6FBD7
:102850000346FB7403E00123FB7400E000BFFB7C34
:10286000002B0BD1764BD3F8883023F440027B68E1
:102870009B6E73491343C1F8883001E0FB7CBB7445
:102880007B681B6803F48053002B41D07B68DB6EB0
:10289000B3F1407F2AD0B3F1407F24D8B3F1007F59
:1028A00008D0B3F1007F1ED8002B0AD0B3F1807F8F
:1028B00010D018E0624BDB68614A43F48033D36088
:1028C00015E07B6804330021184600F085FA0346C2
:1028D000FB740CE07B6820330021184600F06EFB8F
:1028E0000346FB7403E00123FB7400E000BFFB7CA4
:1028F000002B0BD1524BD3F8883023F040727B6809
:10290000DB6E4F491343C1F8883001E0FB7CBB7498
:102910007B681B6803F40033002B00F0A0800023C9
:102920007B74474B9B6D03F08053002B01D1012337
:1029300000E00023002B0DD0414B9B6D404A43F03B
:10294000805393653E4B9B6D03F08053BB60BB6827
:1029500001237B743B4B1B683A4A43F4807313603A
:10296000FFF7D0F8F86009E0FFF7CCF80246FB6803
:10297000D31A022B02D90323FB7405E0314B1B68E9
:1029800003F48073002BEFD0FB7C002B5CD12C4B2D
:10299000D3F8903003F440737B617B69002B1FD028
:1029A0007B68D3F888307A699A4219D0244BD3F8DF
:1029B000903023F440737B61214BD3F89030204A50
:1029C00043F48033C2F890301D4BD3F890301C4A4A
:1029D00023F48033C2F89030194A7B69C2F89030F2
:1029E0007B6903F00103002B16D0FFF78BF8F8602A
:1029F0000BE0FFF787F80246FB68D31A41F28832F2
:102A0000934202D90323FB7406E00D4BD3F89030B8
:102A100003F00203002BECD0FB7C002B0CD1084B05
:102A2000D3F8903023F440727B68D3F8883004499F
:102A30001343C1F8903009E0FB7CBB7406E000BF93
:102A40000010024000700040FB7CBB747B7C012BBB
:102A500005D1A64B9B6DA54A23F0805393657B68F7
:102A60001B6803F00103002B0AD0A04BD3F8883079
:102A700023F003027B689B6B9C491343C1F88830A9
:102A80007B681B6803F00203002B0AD0974BD3F836
:102A9000883023F00C027B68DB6B94491343C1F848
:102AA00088307B681B6803F00403002B0AD08F4B2F
:102AB000D3F8883023F030027B681B6C8B491343BA
:102AC000C1F888307B681B6803F00803002B0AD02C
:102AD000864BD3F8883023F0C0027B685B6C834957
:102AE0001343C1F888307B681B6803F01003002B88
:102AF0000AD07E4BD3F8883023F440727B689B6CFD
:102B00007A491343C1F888307B681B6803F02003BF
:102B1000002B0AD0754BD3F8883023F440627B68D1
:102B2000DB6C72491343C1F888307B681B6803F47F
:102B30000073002B0AD06D4BD3F8883023F4402269
:102B40007B681B6E69491343C1F888307B681B683A
:102B500003F48063002B0AD0644BD3F8883023F44D
:102B600040127B685B6E61491343C1F888307B6813
:102B70001B6803F04003002B0AD05C4BD3F888306D
:102B800023F440527B681B6D58491343C1F88830C9
:102B90007B681B6803F08003002B0AD0534BD3F8EB
:102BA000883023F440427B685B6D50491343C1F881
:102BB00088307B681B6803F48073002B0AD04B4B72
:102BC000D3F8883023F440327B689B6D4749134328
:102BD000C1F888307B681B6803F48013002B0AD08F
:102BE000424BD3F89C3023F003027B68DB6D3F49F6
:102BF0001343C1F89C307B681B6803F40053002B1F
:102C000028D03A4BD3F8883023F040627B681B6FA2
:102C100036491343C1F888307B681B6FB3F1006FEE
:102C200006D1324BDB68314A43F48013D36011E0A4
:102C30007B681B6FB3F1806F0CD17B68043301217B
:102C4000184600F0C9F80346FB74FB7C002B01D04A
:102C5000FB7CBB747B681B6803F40023002B28D02B
:102C6000224BD3F8883023F040627B685B6F1F49AA
:102C70001343C1F888307B685B6FB3F1006F06D1F6
:102C80001A4BDB68194A43F48013D36011E07B6868
:102C90005B6FB3F1806F0CD17B6804330121184660
:102CA00000F09AF80346FB74FB7C002B01D0FB7C00
:102CB000BB747B681B6803F48023002B2AD00B4B6A
:102CC000D3F8883023F040627B689B6F0749134339
:102CD000C1F888307B689B6FB3F1006F08D1034B5C
:102CE000DB68024A43F48013D36013E00010024013
:102CF0007B689B6FB3F1806F0CD17B68043301213B
:102D0000184600F069F80346FB74FB7C002B01D0E9
:102D1000FB7CBB747B681B6803F48043002B2FD0C3
:102D20002C4BD3F8883023F040527B68DB6F294965
:102D30001343C1F888307B68DB6FB3F1805F0DD13E
:102D40007B6804330221184600F046F80346FB7402
:102D5000FB7C002B14D0FB7CBB7411E07B68DB6F29
:102D6000B3F1005F0CD17B6820330221184600F0DC
:102D700025F90346FB74FB7C002B01D0FB7CBB7464
:102D80007B681B6803F40043002B0BD0114BD3F876
:102D9000883023F080427B68D3F880300D4913439C
:102DA000C1F888307B681B6803F48033002B0BD09C
:102DB000084BD3F8883023F000427B68D3F8843086
:102DC00004491343C1F88830BB7C18461837BD4608
:102DD00080BD00BF0010024080B584B000AF7860B5
:102DE00039600023FB73744BDB6803F00303002B93
:102DF00018D0714BDB6803F003027B681B689A42B2
:102E00000DD17B681B68002B09D06B4BDB681B095D
:102E100003F007035A1C7B685B689A4247D0012382
:102E2000FB7344E07B681B68032B18D0032B25D869
:102E3000012B02D0022B09D020E05F4B1B6803F06E
:102E40000203002B1DD10123FB731AE05A4B1B68B0
:102E500003F48063002B16D10123FB7313E0564B60
:102E60001B6803F40033002B0FD1534B1B6803F492
:102E70008023002B09D10123FB7306E00123FB73A0
:102E800004E000BF02E000BF00E000BFFB7B002BBE
:102E90000DD1494BDB6823F073027B6819687B68AE
:102EA0005B68013B1B010B4343491343CB60FB7B36
:102EB000002B7CD1404B1B683F4A23F0806313609A
:102EC000FEF720FEB86009E0FEF71CFE0246BB6874
:102ED000D31A022B02D90323FB7305E0364B1B6880
:102EE00003F00063002BEFD1FB7B002B5FD13B682D
:102EF000002B10D1304B1B6923F0784323F4FE43A1
:102F00007A68926811027A68D268D2060A432A491E
:102F100013430B6127E03B68012B12D1264B1B6941
:102F200023F4C00323F4FE437A68926811027A689E
:102F300012695208013A52050A431F4913430B61B3
:102F400011E01D4B1B6923F0C06323F4FE437A6834
:102F5000926811027A6852695208013A52060A438D
:102F6000154913430B61144B1B68134A43F08063EC
:102F70001360FEF7C7FDB86009E0FEF7C3FD024627
:102F8000BB68D31A022B02D90323FB7305E00A4B5B
:102F90001B6803F00063002BEFD0FB7B002B06D1F6
:102FA000054B1A697B689B69034913430B61FB7BE3
:102FB00018461037BD4680BD0010024080B584B071
:102FC00000AF786039600023FB73694BDB6803F066
:102FD0000303002B18D0664BDB6803F003027B6809
:102FE0001B689A420DD17B681B68002B09D0604B8F
:102FF000DB681B0903F007035A1C7B685B689A4275
:1030000047D00123FB7344E07B681B68032B18D077
:10301000032B25D8012B02D0022B09D020E0544BE2
:103020001B6803F00203002B1DD10123FB731AE080
:103030004F4B1B6803F48063002B16D10123FB73F5
:1030400013E04B4B1B6803F40033002B0FD1484BAC
:103050001B6803F48023002B09D10123FB7306E0D6
:103060000123FB7304E000BF02E000BF00E000BFEB
:10307000FB7B002B0DD13E4BDB6823F073027B689A
:1030800019687B685B68013B1B010B43384913439C
:10309000CB60FB7B002B66D1354B1B68344A23F099
:1030A00080531360FEF72EFDB86009E0FEF72AFD9D
:1030B0000246BB68D31A022B02D90323FB7305E037
:1030C0002B4B1B6803F00053002BEFD1FB7B002B35
:1030D00049D13B68002B10D1254B5B6923F0784325
:1030E00023F4FE437A68926811027A68D268D206A5
:1030F0000A431F4913434B6111E01D4B5B6923F0E9
:10310000C06323F4FE437A68926811027A681269F8
:103110005208013A52060A43154913434B61144BB6
:103120001B68134A43F080531360FEF7EBFCB86052
:1031300009E0FEF7E7FC0246BB68D31A022B02D96E
:103140000323FB7305E00A4B1B6803F00053002BBD
:10315000EFD0FB7B002B06D1054B5A697B685B697E
:10316000034913434B61FB7B18461037BD4680BDB6
:103170000010024080B487B000AF7860396000234F
:103180007B6166E13B681A6801217B6901FA03F300
:103190001340FB60FB68002B00F058813B685B68C4
:1031A00003F00303012B05D03B685B6803F00303C6
:1031B000022B30D17B689B683B617B695B000322FB
:1031C00002FA03F3DB433A6913403B613B68DA6878
:1031D0007B695B0002FA03F33A6913433B617B6846
:1031E0003A699A607B685B683B6101227B6902FAFD
:1031F00003F3DB433A6913403B613B685B681B099F
:1032000003F001027B6902FA03F33A6913433B615D
:103210007B683A695A603B685B6803F00303032BE1
:1032200017D07B68DB683B617B695B00032202FA95
:1032300003F3DB433A6913403B613B689A687B695F
:103240005B0002FA03F33A6913433B617B683A6916
:10325000DA603B685B6803F00303022B23D17B69D0
:10326000DA087B68083253F822303B617B6903F04F
:1032700007039B000F2202FA03F3DB433A69134072
:103280003B613B681A697B6903F007039B0002FA04
:1032900003F33A6913433B617B69DA087B680832C0
:1032A000396943F822107B681B683B617B695B00CE
:1032B000032202FA03F3DB433A6913403B613B68A4
:1032C0005B6803F003027B695B0002FA03F33A696F
:1032D00013433B617B683A691A603B685B6803F49F
:1032E0004033002B00F0B280614B1B6E604A43F00C
:1032F000010313665E4B1B6E03F00103BB60BB68EA
:103300005C4A7B699B08023352F823303B617B693E
:1033100003F003039B000F2202FA03F3DB433A6935
:1033200013403B617B68B3F1904F2BD07B68524ACE
:10333000934225D07B68514A93421FD07B68504A04
:10334000934219D07B684F4A934213D07B684E4A10
:1033500093420DD07B684D4A934207D07B684C4A1C
:10336000934201D107230EE008230CE006230AE074
:10337000052308E0042306E0032304E0022302E01F
:10338000012300E000237A6902F0030292009340D7
:103390003A6913433B6137497B699B0802333A69B9
:1033A00041F823203B4B9B683B61FB68DB433A6958
:1033B00013403B613B685B6803F48013002B03D030
:1033C0003A69FB6813433B61324A3B699360314B76
:1033D000DB683B61FB68DB433A6913403B613B6858
:1033E0005B6803F40013002B03D03A69FB681343B6
:1033F0003B61284A3B69D360264B5B683B61FB68B5
:10340000DB433A6913403B613B685B6803F400337C
:10341000002B03D03A69FB6813433B611D4A3B69AB
:1034200053601C4B1B683B61FB68DB433A691340EC
:103430003B613B685B6803F48033002B03D03A693F
:10344000FB6813433B61134A3B6913607B6901339B
:103450007B613B681A687B6922FA03F3002B7FF4D7
:1034600091AE00BF00BF1C37BD465DF8047B7047BE
:10347000001002400000014000040048000800481D
:10348000000C0048001000480014004800180048D4
:10349000001C00480004014080B485B000AF786093
:1034A0007B68002B01D1012398E07B681B681A46DA
:1034B0004D4B9A420FD87B681B681A464B4B1344FE
:1034C0004B4AA2FB03231B099A007B685A647B6862
:1034D000484A1A640EE07B681B681A46464B134440
:1034E000434AA2FB03231B099A007B685A647B684A
:1034F000424A1A647B68022283F825207B681B6895
:103500001B68FB60FB6823F4FF4323F07003FB6040
:103510007B689A687B68DB681A437B681B691A437F
:103520007B685B691A437B689B691A437B68DB692C
:103530001A437B681B6A1343FA681343FB607B687A
:103540001B68FA681A607B689B68B3F5804F39D0B6
:103550007B681B6C274A93421AD1294B1A687B68F7
:103560005B6C03F01C030F2101FA03F3DB432449D6
:1035700013400B60224B1A687B6859687B685B6C50
:1035800003F01C0301FA03F31D4913430B6019E018
:103590001C4B1A687B685B6C03F01C030F2101FA5B
:1035A00003F3DB43174913400B60164B1A687B6823
:1035B00059687B685B6C03F01C0301FA03F3114943
:1035C00013430B607B680022DA637B68012283F877
:1035D00025207B68002283F8242000231846143716
:1035E000BD465DF8047B704707040240F8FFFDBF4D
:1035F000CDCCCCCC00000240F8FBFDBF0004024063
:10360000A8000240A804024080B586B000AFF86070
:10361000B9607A603B600023FB75FB6893F8243047
:10362000012B01D102234BE0FB68012283F8242007
:10363000FB6893F82530DBB2012B3AD1FB680222FC
:1036400083F82520FB680022DA63FB681B681A6890
:10365000FB681B6822F001021A603B687A68B9684F
:10366000F86800F05FF9FB681B6B002B08D0FB6863
:103670001B681A68FB681B6842F00E021A600FE0B4
:10368000FB681B681A68FB681B6822F004021A605A
:10369000FB681B681A68FB681B6842F00A021A6024
:1036A000FB681B681A68FB681B6842F001021A601D
:1036B00005E0FB68002283F824200223FB75FB7DD4
:1036C00018461837BD4680BD80B485B000AF78601D
:1036D0000023FB737B6893F82530DBB2022B08D004
:1036E0007B680422DA637B68002283F824200123AC
:1036F00022E07B681B681A687B681B6822F00E0258
:103700001A607B681B681A687B681B6822F00102DC
:103710001A607B685B6C03F01C027B681B6C0121E8
:1037200001FA02F25A607B68012283F825207B6847
:10373000002283F82420FB7B18461437BD465DF831
:10374000047B704780B584B000AF78600023FB73C2
:103750007B6893F82530DBB2022B05D07B6804220E
:10376000DA630123FB7329E07B681B681A687B68B6
:103770001B6822F00E021A607B681B681A687B685F
:103780001B6822F001021A607B685B6C03F01C026C
:103790007B681B6C012101FA02F25A607B680122EE
:1037A00083F825207B68002283F824207B689B6BAC
:1037B000002B03D07B689B6B78689847FB7B18468F
:1037C0001037BD4680BD80B584B000AF78607B689F
:1037D0001B6C1B68FB607B681B681B68BB607B689D
:1037E0005B6C03F01C0304229A40FB681340002B1F
:1037F00026D0BB6803F00403002B21D07B681B6834
:103800001B6803F02003002B07D17B681B681A6834
:103810007B681B6822F004021A607B685B6C03F013
:103820001C027B681B6C042101FA02F25A607B685F
:103830001B6B002B71D07B681B6B786898476CE022
:103840007B685B6C03F01C0302229A40FB68134008
:10385000002B2ED0BB6803F00203002B29D07B681D
:103860001B681B6803F02003002B0BD17B681B68CF
:103870001A687B681B6822F00A021A607B680122C2
:1038800083F825207B685B6C03F01C027B681B6C53
:10389000022101FA02F25A607B68002283F8242098
:1038A0007B68DB6A002B38D07B68DB6A78689847D6
:1038B00033E07B685B6C03F01C0308229A40FB68D2
:1038C0001340002B2AD0BB6803F00803002B25D03F
:1038D0007B681B681A687B681B6822F00E021A60FE
:1038E0007B685B6C03F01C027B681B6C012101FA96
:1038F00002F25A607B680122DA637B68012283F856
:1039000025207B68002283F824207B685B6B002BDA
:1039100004D07B685B6B7868984700BF00BF1037A6
:10392000BD4680BD80B485B000AFF860B9607A60F4
:103930003B60FB685B6C03F01C02FB681B6C0121A5
:1039400001FA02F25A60FB681B683A685A60FB6829
:103950009B68102B08D1FB681B687A689A60FB682B
:103960001B68BA68DA6007E0FB681B68BA689A608F
:10397000FB681B687A68DA6000BF1437BD465DF8E3
:10398000047B704780B400AF044B1B6803F4C06332
:103990001846BD465DF8047B704700BF00700040CC
:1039A00080B485B000AF78607B68B3F5007F30D11C
:1039B000234B1B6803F4C063B3F5007F38D0204B62
:1039C0001B6823F4C0631E4A43F4007313601D4B4D
:1039D0001B68322202FB03F31B4AA2FB03239B0C4E
:1039E0000133FB6002E0FB68013BFB60144B5B6949
:1039F00003F48063B3F5806F02D1FB68002BF2D132
:103A00000F4B5B6903F48063B3F5806F10D1032320
:103A10000FE00B4B1B6803F4C063B3F5806F07D056
:103A2000074B1B6823F4C063054A43F480631360AB
:103A3000002318461437BD465DF8047B704700BF6D
:103A4000007000400000002083DE1B4380B485B07E
:103A500000AF78607B6803F00703FB600C4BDB680A
:103A6000BB60BA684FF6FF031340BB60FB681A02E5
:103A7000BB68134343F0BF6343F40033BB60044AA5
:103A8000BB68D36000BF1437BD465DF8047B704748
:103A900000ED00E080B400AF044BDB681B0A03F0CC
:103AA00007031846BD465DF8047B704700ED00E053
:103AB00080B483B000AF0346FB7197F90730002B49
:103AC0000BDBFB7903F01F02074997F907305B090D
:103AD000012000FA02F241F8232000BF0C37BD4656
:103AE0005DF8047B704700BF00E100E080B483B064
:103AF00000AF03463960FB7197F90730002B0ADBF2
:103B00003B68DAB20C4997F907301201D2B20B4484
:103B100083F800230AE03B68DAB20849FB7903F036
:103B20000F03043B1201D2B20B441A7600BF0C37CC
:103B3000BD465DF8047B704700E100E000ED00E069
:103B400080B489B000AFF860B9607A60FB6803F0B8
:103B50000703FB61FB69C3F10703042B28BF0423A0
:103B6000BB61FB690433062B02D9FB69033B00E010
:103B700000237B614FF0FF32BB6902FA03F3DA43A3
:103B8000BB681A407B699A404FF0FF317B6901FAAC
:103B900003F3D9437B680B40134318462437BD46D3
:103BA0005DF8047B7047000080B582B000AF78609C
:103BB0007B68013BB3F1807F01D301230FE00A4A08
:103BC0007B68013B53600F214FF0FF30FFF78EFF02
:103BD000054B00229A60044B07221A600023184606
:103BE0000837BD4680BD00BF10E000E080B582B060
:103BF00000AF78607868FFF729FF00BF0837BD463F
:103C000080BD80B586B000AF0346B9607A60FB73B3
:103C100000237B61FFF73EFF78617A68B9687869B5
:103C2000FFF78EFF024697F90F3011461846FFF74F
:103C30005DFF00BF1837BD4680BD80B582B000AFC4
:103C40000346FB7197F907301846FFF731FF00BFB5
:103C50000837BD4680BD80B582B000AF7860786817
:103C6000FFF7A2FF034618460837BD4680BD80B562
:103C700082B000AF78607B68002B01D1012340E067
:103C80007B68DB6F002B06D17B68002283F87820ED
:103C9000786801F09FFD7B682422DA677B681B68E7
:103CA0001A687B681B6822F001021A607B685B6AF5
:103CB000002B02D0786800F06BFF786800F0B0FC51
:103CC0000346012B01D101231BE07B681B685A6866
:103CD0007B681B6822F490425A607B681B689A6874
:103CE0007B681B6822F02A029A607B681B681A684E
:103CF0007B681B6842F001021A60786800F0EAFFF6
:103D0000034618460837BD4680BD80B58AB002AF6D
:103D1000F860B9603B601346FB80FB68DB6F202BCB
:103D200077D1BB68002B02D0FB88002B01D1012387
:103D300070E0FB680022C3F88420FB682122DA6768
:103D4000FDF7E0FE7861FB68FA88A3F85020FB6875
:103D5000FA88A3F85220FB689B68B3F5805F08D10E
:103D6000FB681B69002B04D10023FB61BB68BB61AE
:103D700003E0BB68FB610023BB612FE03B6800935D
:103D80007B6900228021F86801F04CF80346002B83
:103D900004D0FB682022DA6703233BE0FB69002B99
:103DA0000BD1BB691A88FB681B68C2F3080292B288
:103DB0001A85BB690233BB6107E0FB691A78FB68AF
:103DC0001B681A85FB690133FB61FB68B3F852304D
:103DD0009BB2013B9AB2FB68A3F85220FB68B3F890
:103DE00052309BB2002BC9D13B6800937B69002203
:103DF0004021F86801F016F80346002B04D0FB6858
:103E00002022DA67032305E0FB682022DA6700231B
:103E100000E0022318462037BD4680BD80B58AB039
:103E200000AFF860B9601346FB80FB68DB6F202BA6
:103E300065D1BB68002B02D0FB88002B01D1012388
:103E40005EE0FB68BA68DA64FB68FA88A3F8502081
:103E5000FB68FA88A3F85220FB680022C3F884208C
:103E6000FB682122DA67FB681B6F002B27D0FB68F9
:103E70001B6F254ADA62FB681B6F244A1A63FB68D2
:103E80001B6F234A5A63FB681B6F00229A63FB680F
:103E9000186FFB68DB6C1946FB681B6828331A46F1
:103EA000FB88FFF7B1FB0346002B08D0FB6810220C
:103EB000C3F88420FB682022DA67012320E0FB6836
:103EC0001B6840221A62FB681B6808337B617B69B0
:103ED00053E8003F3B613B6943F080037B62FB6832
:103EE0001B6808337A6A3A62FB61F9693A6A41E809
:103EF0000023BB61BB69002BE5D1002300E0022356
:103F000018462837BD4680BD55510008EF510008BE
:103F10007553000880B58AB000AFF860B9601346E9
:103F2000FB80FB68D3F88030202B37D1BB68002B97
:103F300002D0FB88002B01D1012330E0FB68002276
:103F40001A66FB681B68184A93421FD0FB681B68FF
:103F50005B6803F40003002B18D0FB681B687B61CF
:103F60007B6953E8003F3B613B6943F080637B62C0
:103F7000FB681B681A467B6A3B62FA61F9693A6A18
:103F800041E80023BB61BB69002BE6D1FB881A46E0
:103F9000B968F86800F0B4FF034600E00223184651
:103FA0002837BD4680BD00BF0080004080B5BAB054
:103FB00000AF78607B681B68DB69C7F8E4307B681A
:103FC0001B681B68C7F8E0307B681B689B68C7F8F4
:103FD000DC30D7F8E42040F60F031340C7F8D830A0
:103FE000D7F8D830002B15D1D7F8E43003F02003F0
:103FF000002B0FD0D7F8E03003F02003002B09D0BE
:104000007B689B6E002B00F0CA827B689B6E786891
:104010009847C4E2D7F8D830002B00F01781D7F8C2
:10402000DC3003F00103002B06D1D7F8E020854BEC
:104030001340002B00F00A81D7F8E43003F00103AD
:10404000002B11D0D7F8E03003F48073002B0BD095
:104050007B681B6801221A627B68D3F8843043F0C6
:1040600001027B68C3F88420D7F8E43003F0020330
:10407000002B11D0D7F8DC3003F00103002B0BD05C
:104080007B681B6802221A627B68D3F8843043F095
:1040900004027B68C3F88420D7F8E43003F00403FB
:1040A000002B11D0D7F8DC3003F00103002B0BD02C
:1040B0007B681B6804221A627B68D3F8843043F063
:1040C00002027B68C3F88420D7F8E43003F00803C9
:1040D000002B17D0D7F8E03003F02003002B05D1D8
:1040E000D7F8DC3003F00103002B0BD07B681B6892
:1040F00008221A627B68D3F8843043F008027B6898
:10410000C3F88420D7F8E43003F40063002B12D006
:10411000D7F8E03003F08063002B0CD07B681B687D
:104120004FF400621A627B68D3F8843043F02002B7
:104130007B68C3F884207B68D3F88430002B00F0C0
:104140003082D7F8E43003F02003002B0DD0D7F8ED
:10415000E03003F02003002B07D07B689B6E002B20
:1041600003D07B689B6E786898477B68D3F884306F
:10417000C7F8D4307B681B689B6803F04003402B72
:1041800005D0D7F8D43003F02803002B4FD078683F
:1041900000F07CFF7B681B689B6803F04003402BAA
:1041A00041D17B681B680833C7F89C30D7F89C3036
:1041B00053E8003FC7F89830D7F8983023F0400311
:1041C000C7F8D0307B681B680833D7F8D020C7F811
:1041D000A820C7F8A430D7F8A410D7F8A82041E841
:1041E0000023C7F8A030D7F8A030002BD9D17B68C6
:1041F0005B6F002B13D07B685B6F134A9A637B68FD
:104200005B6F1846FFF79EFA0346002B17D07B68BA
:104210005B6F9B6B7A68526F104698470FE0786827
:1042200000F0E8F90BE0786800F0E4F907E078685E
:1042300000F0E0F97B680022C3F88420B1E100BF00
:10424000AFE100BF20010004F35300087B681B6E40
:10425000012B40F06A81D7F8E43003F01003002B03
:1042600000F06381D7F8E03003F01003002B00F07A
:104270005C817B681B6810221A627B681B689B68E4
:1042800003F04003402B40F0D4807B685B6F1B68D9
:104290005B68A7F8BE30B7F8BE30002B00F0AD80E9
:1042A0007B68B3F85830B7F8BE209A4280F0A580FA
:1042B0007B68B7F8BE20A3F85A207B685B6F1B6849
:1042C0001B6803F02003002B40F086807B681B688E
:1042D000C7F88830D7F8883053E8003FC7F88430F3
:1042E000D7F8843023F48073C7F8B8307B681B6834
:1042F0001A46D7F8B830C7F89430C7F89020D7F8E6
:104300009010D7F8942041E80023C7F88C30D7F8F4
:104310008C30002BDAD17B681B6808337B677B6F9E
:1043200053E8003F3B673B6F23F00103C7F8B4300D
:104330007B681B680833D7F8B420C7F88020FB6778
:10434000F96FD7F8802041E80023BB67BB6F002BD3
:10435000E1D17B681B6808333B663B6E53E8003F46
:10436000FB65FB6D23F04003C7F8B0307B681B682A
:104370000833D7F8B020FA66BB66B96EFA6E41E82A
:1043800000237B667B6E002BE3D17B682022C3F881
:1043900080207B6800221A667B681B68FB64FB6CCC
:1043A00053E8003FBB64BB6C23F01003C7F8AC308C
:1043B0007B681B681A46D7F8AC30BB657A65796DA7
:1043C000BA6D41E800233B653B6D002BE4D17B686F
:1043D0005B6F1846FFF778F97B6802225A667B68A4
:1043E000B3F858207B68B3F85A309BB2D31A9BB20B
:1043F0001946786800F008F9D5E07B68B3F85830C2
:10440000B7F8BE209A4240F0CE807B685B6F1B6895
:104410001B6803F02003202B40F0C5807B6802223C
:104420005A667B68B3F858301946786800F0ECF8A3
:10443000B9E07B68B3F858207B68B3F85A309BB278
:10444000D31AA7F8CE307B68B3F85A309BB2002B52
:1044500000F0AB80B7F8CE30002B00F0A6807B6870
:104460001B68BB63BB6B53E8003F7B637B6B23F430
:104470009073C7F8C8307B681B681A46D7F8C830F5
:104480007B643A64396C7A6C41E80023FB63FB6B14
:10449000002BE4D17B681B6808337B627B6A53E89E
:1044A000003F3B623B6A23F00103C7F8C4307B68DE
:1044B0001B680833D7F8C4203A63FB62F96A3A6B89
:1044C00041E80023BB62BB6A002BE3D17B6820225A
:1044D000C3F880207B6800221A667B6800229A66F7
:1044E0007B681B683B613B6953E8003FFB60FB68EE
:1044F00023F01003C7F8C0307B681B681A46D7F852
:10450000C030FB61BA61B969FA6941E800237B6197
:104510007B69002BE4D17B6802225A66B7F8CE3063
:104520001946786800F070F83FE0D7F8E43003F4FB
:104530008013002B0ED0D7F8DC3003F48003002B5F
:1045400008D07B681B684FF480121A62786800F00C
:1045500090FF2DE0D7F8E43003F08003002B0ED05D
:10456000D7F8E03003F08003002B08D07B68DB6EC7
:10457000002B1CD07B68DB6E7868984717E0D7F873
:10458000E43003F04003002B12D0D7F8E03003F002
:104590004003002B0CD0786800F041FF08E000BF1A
:1045A00006E000BF04E000BF02E000BF00E000BF83
:1045B000E837BD4680BD00BF80B483B000AF7860EF
:1045C00000BF0C37BD465DF8047B704780B483B0F4
:1045D00000AF786000BF0C37BD465DF8047B7047C4
:1045E00080B483B000AF786000BF0C37BD465DF883
:1045F000047B704780B483B000AF786000BF0C3795
:10460000BD465DF8047B704780B483B000AF78602E
:104610000B467B8000BF0C37BD465DF8047B7047BE
:104620002DE9B04F8AB000AFF860002387F8223040
:10463000FB689A68FB681B691A43FB685B691A434D
:10464000FB68DB6913437B62FB681B681A68A44B39
:104650001340FA681268796A0B431360FB681B68A1
:104660005B6823F44051FB68DA68FB681B680A4307
:104670005A60FB689B697B62FB681B68994A93429E
:1046800004D0FB681B6A7A6A13437B62FB681B6871
:104690009B6823F43061FB681B687A6A0A439A605E
:1046A000FB681B68904A934226D1904BD3F8883020
:1046B00003F00303032B1BD801A252F823F000BF21
:1046C000D1460008E1460008D9460008E94600083E
:1046D000012387F8233016E1022387F8233012E103
:1046E000042387F823300EE1082387F823300AE1FA
:1046F000102387F8233006E1FB681B687C4A93424D
:1047000038D17A4BD3F8883003F00C030C2B2DD81A
:1047100001A252F823F000BF4D4700086D47000882
:104720006D4700086D4700085D4700086D470008A9
:104730006D4700086D470008554700086D470008A1
:104740006D4700086D47000865470008002387F89B
:104750002330D8E0022387F82330D4E0042387F8FD
:104760002330D0E0082387F82330CCE0102387F8EB
:104770002330C8E0FB681B685E4A934225D15B4B3F
:10478000D3F8883003F03003302B16D0302B18D8F4
:10479000202B0AD0202B14D8002B02D0102B08D0AD
:1047A0000FE0002387F82330ADE0022387F82330A1
:1047B000A9E0042387F82330A5E0082387F82330F5
:1047C000A1E0102387F823309DE0FB681B684A4A6C
:1047D000934225D1454BD3F8883003F0C003C02B5A
:1047E00016D0C02B18D8802B0AD0802B14D8002BC1
:1047F00002D0402B08D00FE0002387F8233082E05E
:10480000022387F823307EE0042387F823307AE000
:10481000082387F8233076E0102387F8233072E0EE
:10482000FB681B68354A93422AD1304BD3F8883055
:1048300003F44073B3F5407F1AD0B3F5407F1BD823
:10484000B3F5007F0CD0B3F5007F15D8002B03D053
:10485000B3F5807F08D00FE0002387F8233052E0C3
:10486000022387F823304EE0042387F823304AE000
:10487000082387F8233046E0102387F8233042E0EE
:10488000FB681B68174A93423AD1184BD3F888301B
:1048900003F44063B3F5406F1AD0B3F5406F1BD8F3
:1048A000B3F5006F0CD0B3F5006F15D8002B03D013
:1048B000B3F5806F08D00FE0002387F8233022E0A3
:1048C000022387F823301EE0042387F823301AE000
:1048D000082387F8233016E0102387F8233012E0EE
:1048E000F369FFEF008000400038014000100240F3
:1048F0000044004000480040004C00400050004090
:10490000102387F82330FB681B689F4A93427AD1B3
:1049100097F82330082B24D801A252F823F000BFC7
:1049200045490008634900084D49000863490008EB
:1049300053490008634900086349000863490008B7
:104940005B490008FDF7C0FEF86110E08F4BFB618A
:104950000DE0FDF721FEF86109E04FF40043FB6133
:1049600005E00023FB61012387F8223000BFFB69CB
:10497000002B00F0FB80FB685A6813465B00134471
:10498000FA699A4205D3FB685B681B03FA699A428D
:1049900003D9012387F82230E8E0FB6900221C4696
:1049A00015464FF000024FF000032B0243EA146358
:1049B0002202F9684968490800208846814612EBBE
:1049C000080A43EB090BFB685B6800223B607A60D6
:1049D000D7E9002350465946FCF7DCF902460B465E
:1049E0001346BB61BB69B3F5407F08D3BB69B3F520
:1049F000801F04D2FB681B68BA69DA60B6E0012345
:104A000087F82230B2E0FB68DB69B3F5004F5ED176
:104A100097F82330082B28D801A252F823F000BFC2
:104A2000454A00084D4A0008554A00086B4A0008EC
:104A30005B4A00086B4A00086B4A00086B4A000892
:104A4000634A0008FDF740FEF86114E0FDF752FEEE
:104A5000F86110E04D4BFB610DE0FDF79DFDF86145
:104A600009E04FF40043FB6105E00023FB610123F3
:104A700087F8223000BFFB69002B77D0FB695A0012
:104A8000FB685B685B081A44FB685B68B2FBF3F386
:104A9000BB61BB690F2B16D9BB69B3F5803F12D23E
:104AA000BB699BB223F00F03FB82BB695B089BB21F
:104AB00003F007039AB2FB8A1343FB82FB681B686F
:104AC000FA8ADA6052E0012387F822304EE097F844
:104AD0002330082B27D801A252F823F0014B0008FD
:104AE000094B0008114B0008274B0008174B000822
:104AF000274B0008274B0008274B00081F4B0008D6
:104B0000FDF7E2FDF86114E0FDF7F4FDF86110E057
:104B10001E4BFB610DE0FDF73FFDF86109E04FF42E
:104B20000043FB6105E00023FB61012387F822308D
:104B300000BFFB69002B19D0FB685B685A08FB6952
:104B40001A44FB685B68B2FBF3F3BB61BB690F2BD4
:104B500009D9BB69B3F5803F05D2BB699AB2FB683E
:104B60001B68DA6002E0012387F82230FB6800222C
:104B70009A66FB680022DA6697F8223018462837D2
:104B8000BD46BDE8B08F00BF008000400024F400A7
:104B900080B483B000AF78607B685B6A03F0080381
:104BA000002B0AD07B681B685B6823F400417B689C
:104BB0005A6B7B681B680A435A607B685B6A03F028
:104BC0000103002B0AD07B681B685B6823F400316B
:104BD0007B689A6A7B681B680A435A607B685B6AD9
:104BE00003F00203002B0AD07B681B685B6823F488
:104BF00080317B68DA6A7B681B680A435A607B688D
:104C00005B6A03F00403002B0AD07B681B685B68B7
:104C100023F480217B681A6B7B681B680A435A6007
:104C20007B685B6A03F01003002B0AD07B681B686B
:104C30009B6823F480517B689A6B7B681B680A43EE
:104C40009A607B685B6A03F02003002B0AD07B68C4
:104C50001B689B6823F400517B68DA6B7B681B68D8
:104C60000A439A607B685B6A03F04003002B1AD00A
:104C70007B681B685B6823F480117B681A6C7B6817
:104C80001B680A435A607B681B6CB3F5801F0AD10E
:104C90007B681B685B6823F4C0017B685A6C7B6887
:104CA0001B680A435A607B685B6A03F08003002B31
:104CB0000AD07B681B685B6823F400217B689A6CD0
:104CC0007B681B680A435A6000BF0C37BD465DF81D
:104CD000047B704780B598B002AF78607B68002293
:104CE000C3F88420FCF70EFF78657B681B681B689F
:104CF00003F00803082B2ED16FF07E4300937B6DE9
:104D000000224FF40011786800F08CF80346002B65
:104D100021D07B681B68BB63BB6B53E8003F7B63A0
:104D20007B6B23F080033B657B681B681A463B6DF9
:104D30007B643A64396C7A6C41E80023FB63FB6B5B
:104D4000002BE6D17B682022DA677B68002283F89B
:104D50007820032362E07B681B681B6803F0040370
:104D6000042B49D16FF07E4300937B6D00224FF4FA
:104D70008001786800F056F80346002B3CD07B6831
:104D80001B687B627B6A53E8003F3B623B6A23F40B
:104D90009073FB647B681B681A46FB6C3B63FA628A
:104DA000F96A3A6B41E80023BB62BB6A002BE6D18B
:104DB0007B681B6808333B613B6953E8003FFB603D
:104DC000FB6823F00103BB647B681B680833BA6C83
:104DD000FA61BB61B969FA6941E800237B617B69CB
:104DE000002BE5D17B682022C3F880207B6800225D
:104DF00083F87820032311E07B682022DA677B6840
:104E00002022C3F880207B6800221A667B6800227B
:104E10005A667B68002283F87820002318465837AA
:104E2000BD4680BD80B584B000AFF860B9603B601E
:104E30001346FB714FE0BB69B3F1FF3F4BD0FCF76A
:104E400061FE02463B68D31ABA699A4202D3BB6933
:104E5000002B01D103234EE0FB681B681B6803F0A5
:104E60000403002B37D0BB68802B34D0BB68402BA9
:104E700031D0FB681B68DB6903F00803082B10D1F5
:104E8000FB681B6808221A62F86800F0FFF8FB68EC
:104E90000822C3F88420FB68002283F878200123CD
:104EA00029E0FB681B68DB6903F40063B3F5006F5E
:104EB00011D1FB681B684FF400621A62F86800F0B9
:104EC000E5F8FB682022C3F88420FB68002283F801
:104ED000782003230FE0FB681B68DA69BB68134086
:104EE000BA689A420CBF01230023DBB21A46FB7951
:104EF0009A42A0D0002318461037BD4680BD00005E
:104F000080B596B000AFF860B9601346FB80FB68CF
:104F1000BA685A65FB68FA88A3F85820FB68002233
:104F2000C3F88420FB682222C3F88020FB685B6FF3
:104F3000002B28D0FB685B6F3E4ADA62FB685B6F30
:104F40003D4A1A63FB685B6F3C4A5A63FB685B6FC0
:104F500000229A63FB68586FFB681B68243319466C
:104F6000FB685B6D1A46FB88FEF74EFB0346002B81
:104F700009D0FB681022C3F88420FB682022C3F804
:104F80008020012351E0FB681B69002B18D0FB68CF
:104F90001B68FB63FB6B53E8003FBB63BB6B43F4D5
:104FA00080737B65FB681B681A467B6DBB647A6403
:104FB000796CBA6C41E800233B643B6C002BE6D172
:104FC000FB681B680833BB62BB6A53E8003F7B6227
:104FD0007B6A43F001033B65FB681B6808333A6D4D
:104FE0007A633B63396B7A6B41E80023FB62FB6AAF
:104FF000002BE5D1FB681B6808337B617B6953E8B4
:10500000003F3B613B6943F04003FB64FB681B6866
:105010000833FA6C3A62FB61F9693A6A41E80023A5
:10502000BB61BB69002BE5D1002318465837BD464C
:1050300080BD00BF0B5200083753000875530008AD
:1050400080B489B000AF78607B681B68FB60FB6848
:1050500053E8003FBB60BB6823F0C003FB617B6883
:105060001B681A46FB69BB617A617969BA6941E8D4
:1050700000233B613B69002BE6D17B682022DA6785
:1050800000BF2437BD465DF8047B704780B495B0FF
:1050900000AF78607B681B687B637B6B53E8003FE5
:1050A0003B633B6B23F49073FB647B681B681A467D
:1050B000FB6C3B64FA63F96B3A6C41E80023BB6319
:1050C000BB6B002BE6D17B681B6808333B623B6AF5
:1050D00053E8003FFB61FB6923F00103BB647B687D
:1050E0001B680833BA6CFA62BB62B96AFA6A41E8B3
:1050F00000237B627B6A002BE5D17B681B6E012B52
:1051000018D17B681B68FB60FB6853E8003FBB60FD
:10511000BB6823F010037B647B681B681A467B6CBA
:10512000BB617A617969BA6941E800233B613B69F7
:10513000002BE6D17B682022C3F880207B68002208
:105140001A667B6800229A6600BF5437BD465DF838
:10515000047B704780B590B000AF78607B689B6A35
:10516000FB637B681B681B6803F02003002B37D1AF
:10517000FB6B0022A3F85220FB6B1B6808337B6299
:105180007B6A53E8003F3B623B6A23F08003BB63CA
:10519000FB6B1B680833BA6B3A63FB62F96A3A6BC4
:1051A00041E80023BB62BB6A002BE5D1FB6B1B68A7
:1051B0003B613B6953E8003FFB60FB6843F0400301
:1051C0007B63FB6B1B681A467B6BFB61BA61B96939
:1051D000FA6941E800237B617B69002BE6D102E09C
:1051E000F86B00F06DFA00BF4037BD4680BD80B55A
:1051F00084B000AF78607B689B6AFB60F868FFF75B
:10520000DBF900BF1037BD4680BD80B59CB000AF54
:1052100078607B689B6AFB667B681B681B6803F091
:105220002003002B71D1FB6E0022A3F85A20FB6EE5
:105230001B68FB64FB6C53E8003FBB64BB6C23F44E
:105240008073BB66FB6E1B681A46BB6EBB657A65D6
:10525000796DBA6D41E800233B653B6D002BE6D1CB
:10526000FB6E1B680833BB63BB6B53E8003F7B637B
:105270007B6B23F001037B66FB6E1B6808337A6E41
:105280007A643B64396C7A6C41E80023FB63FB6B06
:10529000002BE5D1FB6E1B6808337B627B6A53E809
:1052A000003F3B623B6A23F040033B66FB6E1B689A
:1052B00008333A6E3A63FB62F96A3A6B41E80023BD
:1052C000BB62BB6A002BE5D1FB6E2022C3F88020B5
:1052D000FB6E1B6E012B18D1FB6E1B683B613B699B
:1052E00053E8003FFB60FB6823F01003FB65FB6E97
:1052F0001B681A46FB6DFB61BA61B969FA6941E83E
:1053000000237B617B69002BE6D1FB6E00225A668D
:10531000FB6E1B6E012B07D1FB6EB3F8583019469C
:10532000F86EFFF771F902E0F86EFFF74FF900BF72
:105330007037BD4680BD80B584B000AF78607B68B3
:105340009B6AFB60FB6801225A66FB681B6E012B9F
:1053500009D1FB68B3F858305B089BB21946F8686E
:10536000FFF752F902E0F868FFF73AF900BF10378B
:10537000BD4680BD80B586B000AF78607B689B6A13
:105380007B617B69DB6F3B617B69D3F88030FB60BD
:105390007B691B689B6803F08003802B09D13B6904
:1053A000212B06D17B690022A3F852207869FFF7F0
:1053B00047FE7B691B689B6803F04003402B09D1C3
:1053C000FB68222B06D17B690022A3F85A2078695A
:1053D000FFF75CFE7B69D3F8843043F010027B69F1
:1053E000C3F884207869FFF705F900BF1837BD4678
:1053F00080BD80B584B000AF78607B689B6AFB603D
:10540000FB680022A3F85A20FB680022A3F8522070
:10541000F868FFF7EFF800BF1037BD4680BD80B5D4
:1054200088B000AF78607B681B68FB60FB6853E85E
:10543000003FBB60BB6823F04003FB617B681B68D7
:105440001A46FB69BB617A617969BA6941E8002350
:105450003B613B69002BE6D17B682022DA677B68E1
:105460000022DA66786800F02BF900BF2037BD46CD
:1054700080BD80B483B000AF786000BF0C37BD46FC
:105480005DF8047B704780B586B000AFF860B96006
:105490001346FB80FB88BB8207F114031A46B968E8
:1054A000F86801F0DEF80346FB75FB7D002B01D1A7
:1054B000BB8A00E0002318461837BD4680BD90B572
:1054C00085B000AF78607B68FB60FB681B891C4679
:1054D000F86801F08EF80346E31A18461437BD4603
:1054E00090BD000080B586B000AFF860B9607A600A
:1054F000FCF708FB786100E000BF134B1B78DBB2C0
:10550000002B06D0FCF7FEFA02467B69D31A632B08
:10551000F2D90D4B1B78DBB2002B0FD17B68002B2F
:105520000CDD094B01221A707B689AB26423B968BA
:105530000648FEF7EAFB044B00221A707B68184607
:105540001837BD4680BD00BFA4090020340B0020E1
:1055500080B582B000AFFCF765FA00F05FF800F0AC
:10556000CBF800F0E1F800F005F900F035FE4FF45B
:1055700080722049204801F048F8204A20492148FB
:1055800001F00FF9204B214A1B491E4801F04CF94C
:105590001F4806F08BFD00F031FE174801F029F896
:1055A0000346FB80FB88002BF5D01A4B1B78DBB23F
:1055B000002BF0D1FB88802B28BF8023BB80BB88C9
:1055C0003B803B461A4614490B4801F09DF80346C0
:1055D000FB70FB78002BDED13B88002BDBD00D4B22
:1055E00001221A703B881A460B490548FEF716FC43
:1055F000D1E700BFA8090020A80A0020BC0B0020AA
:10560000340B002040090020BF54000887540008D4
:1056100060DE0008A4090020B40A002080B596B01E
:1056200000AF07F1140344220021184606F01CFEC7
:105630003B4600221A605A609A60DA601A614FF4A1
:105640000070FEF7ADF90346002B01D000F04EF8D4
:1056500002237B614FF480733B6240237B62022311
:10566000FB6302233B6401237B640A23BB640223A4
:10567000FB6402233B6502237B6507F11403184694
:10568000FCF770FA0346002B01D000F02FF80F232F
:105690003B6003237B609023BB600023FB600023FF
:1056A0003B613B4601211846FCF776FE0346002B82
:1056B00001D000F01BF800BF5837BD4680BD000088
:1056C00080B483B000AF78607B681B68054A934262
:1056D00002D1054B00221A7000BF0C37BD465DF8A1
:1056E000047B704700380140A409002080B400AF5B
:1056F00072B600BF00BFFDE780B483B000AF094BB6
:10570000DB6C084A43F00103D364064BDB6C03F007
:1057100001037B607B6800BF0C37BD465DF8047BEE
:10572000704700BF0010024080B582B000AF104B40
:105730009B6C0F4A43F0010393640D4B9B6C03F089
:1057400001037B607B68002200210E20FEF759FADE
:105750000E20FEF772FA002200210F20FEF751FA08
:105760000F20FEF76AFA00BF0837BD4680BD00BFB4
:105770000010024080B500AF144B154A1A60134B5D
:105780004FF4E1325A60114B00229A600F4B002215
:10579000DA600E4B00221A610C4B0C225A610B4B43
:1057A00000229A61094B0022DA61084B00221A623A
:1057B000064B00225A620548FEF759FA0346002BB1
:1057C00001D0FFF793FF00BF80BD00BF340B002066
:1057D0000038014080B5ACB000AF786007F19C03A1
:1057E00000221A605A609A60DA601A6107F11003A9
:1057F0008C220021184606F037FD7B681B684F4A53
:10580000934240F0978001233B610023BB6407F182
:1058100010031846FCF7E4FF0346002B01D0FFF706
:1058200065FF474B1B6E464A43F480431366444B67
:105830001B6E03F48043FB60FB68414BDB6C404A0A
:1058400043F00103D3643E4BDB6C03F00103BB6008
:10585000BB684FF4C063C7F89C300223C7F8A03080
:105860000023C7F8A4300323C7F8A8300723C7F8DC
:10587000AC3007F19C0319464FF09040FDF77AFCDD
:10588000304B314A1A602F4B02225A602D4B0022B6
:105890009A602C4B0022DA602A4B80221A61294B35
:1058A00000225A61274B00229A61264B2022DA619E
:1058B000244B00221A622348FDF7EEFD0346002B1D
:1058C00001D0FFF713FF7B681E4A5A671D4A7B68A9
:1058D00093621E4B1E4A1A601C4B02225A601B4BDD
:1058E00010229A60194B0022DA60184B80221A614C
:1058F000164B00225A61154B00229A61134B00226D
:10590000DA61124B00221A621048FDF7C5FD03460A
:10591000002B01D0FFF7EAFE7B680C4A1A670B4A9E
:105920007B689362002200212520FEF76AF925207A
:10593000FEF783F900BFB037BD4680BD0038014097
:1059400000100240BC0B002058000240040C002054
:105950004400024080B400AF00BFFDE780B400AF58
:1059600000BFFDE780B400AF00BFFDE780B400AF2B
:1059700000BFFDE780B400AF00BFFDE780B400AF1B
:1059800000BFBD465DF8047B704780B400AF00BF28
:10599000BD465DF8047B704780B400AF00BFBD46D4
:1059A0005DF8047B704780B500AFFCF797F800BF47
:1059B00080BD000080B500AF0248FDF704FF00BFC6
:1059C00080BD00BF040C002080B500AF034800F08C
:1059D00041FF0348FDF7F7FE00BF80BD40090020EE
:1059E000BC0B002080B500AF034800F033FF034834
:1059F000FEF7DCFA00BF80BD40090020340B002018
:105A000080B483B000AF0F4B1B6E0E4A43F001030E
:105A100013660C4B1B6E03F001037B607B68094B24
:105A20009B6D084A43F080539365064B9B6D03F0D2
:105A300080533B603B6800BF0C37BD465DF8047B7C
:105A4000704700BF0010024080B586B000AF78609C
:105A5000144A154BD31A7B617B693B61134B1B685E
:105A6000002B02D1114B124A1A60104B1A687B6846
:105A700013443A699A4207D206F058FC03460C22B6
:105A80001A604FF0FF3309E0084B1B68FB60074BBF
:105A90001A687B681344054A1360FB681846183778
:105AA000BD4680BD00000420000800004C0C002012
:105AB0002012002080B400AF01231846BD465DF8D7
:105AC000047B704780B582B000AF7860396006F023
:105AD0002DFC034616221A604FF0FF331846083794
